{
  "contractName": "Name_list",
  "abi": [
    {
      "constant": true,
      "inputs": [
        {
          "internalType": "string",
          "name": "",
          "type": "string"
        }
      ],
      "name": "names",
      "outputs": [
        {
          "internalType": "uint256",
          "name": "",
          "type": "uint256"
        }
      ],
      "payable": false,
      "stateMutability": "view",
      "type": "function"
    },
    {
      "constant": true,
      "inputs": [
        {
          "internalType": "string",
          "name": "name",
          "type": "string"
        }
      ],
      "name": "getID",
      "outputs": [
        {
          "internalType": "uint256",
          "name": "",
          "type": "uint256"
        }
      ],
      "payable": false,
      "stateMutability": "view",
      "type": "function"
    },
    {
      "constant": false,
      "inputs": [
        {
          "internalType": "string",
          "name": "name",
          "type": "string"
        }
      ],
      "name": "addName",
      "outputs": [],
      "payable": true,
      "stateMutability": "payable",
      "type": "function"
    }
  ],
  "bytecode": "0x6080604052600060015534801561001557600080fd5b50610404806100256000396000f3fe6080604052600436106100345760003560e01c806311456b471461003957806370aca6c8146100f4578063822fbf58146101d0575b600080fd5b6100f26004803603602081101561004f57600080fd5b810190808035906020019064010000000081111561006c57600080fd5b82018360208201111561007e57600080fd5b803590602001918460018302840111640100000000831117156100a057600080fd5b91908080601f016020809104026020016040519081016040528093929190818152602001838380828437600081840152601f19601f8201169050808301925050505050505091929192905050506102ac565b005b34801561010057600080fd5b506101ba6004803603602081101561011757600080fd5b810190808035906020019064010000000081111561013457600080fd5b82018360208201111561014657600080fd5b8035906020019184600183028401116401000000008311171561016857600080fd5b91908080601f016020809104026020016040519081016040528093929190818152602001838380828437600081840152601f19601f82011690508083019250505050505050919291929050505061032f565b6040518082815260200191505060405180910390f35b3480156101dc57600080fd5b50610296600480360360208110156101f357600080fd5b810190808035906020019064010000000081111561021057600080fd5b82018360208201111561022257600080fd5b8035906020019184600183028401116401000000008311171561024457600080fd5b91908080601f016020809104026020016040519081016040528093929190818152602001838380828437600081840152601f19601f8201169050808301925050505050505091929192905050506103a1565b6040518082815260200191505060405180910390f35b6001546000826040518082805190602001908083835b602083106102e557805182526020820191506020810190506020830392506102c2565b6001836020036101000a0380198251168184511680821785525050505050509050019150509081526020016040518091039020819055506001806000828254019250508190555050565b600080826040518082805190602001908083835b602083106103665780518252602082019150602081019050602083039250610343565b6001836020036101000a0380198251168184511680821785525050505050509050019150509081526020016040518091039020549050919050565b600081805160208101820180518482526020830160208501208183528095505050505050600091509050548156fea265627a7a723158201a18e2144a142aacef78191c6b0fb4ca537ac172fd68737174cb72a74a0b32ae64736f6c63430005100032",
  "source": "pragma solidity >=0.4.22 <0.8.0;\n\n\ncontract Name_list {\n\n    mapping(string => uint) public names;\n    uint private last_id = 0;\n\n    function getID(string memory name )public view returns(uint ){\n        return names[name];\n    }\n\n    function addName(string memory name)public payable{\n        names[name] = last_id;\n        last_id += 1;\n    }\n\n}\n",
  "sourcePath": "/Users/laurenswissels/Documents/Blockchain/Truffle/test-project/smart_contract /contracts/Name_list.sol",
  "compiler": {
    "name": "solc",
    "version": "0.5.16+commit.9c3226ce.Emscripten.clang"
  },
  "schemaVersion": "3.3.1",
  "updatedAt": "2020-11-01T15:31:30.360Z",
  "devdoc": {
    "methods": {}
  },
  "userdoc": {
    "methods": {}
  }
}