{
  "contractName": "Name_list",
  "abi": [
    {
      "constant": true,
      "inputs": [
        {
          "internalType": "string",
          "name": "",
          "type": "string"
        }
      ],
      "name": "names",
      "outputs": [
        {
          "internalType": "uint256",
          "name": "",
          "type": "uint256"
        }
      ],
      "payable": false,
      "stateMutability": "view",
      "type": "function"
    },
    {
      "constant": true,
      "inputs": [
        {
          "internalType": "string",
          "name": "name",
          "type": "string"
        }
      ],
      "name": "getID",
      "outputs": [
        {
          "internalType": "uint256",
          "name": "",
          "type": "uint256"
        }
      ],
      "payable": false,
      "stateMutability": "view",
      "type": "function"
    },
    {
      "constant": false,
      "inputs": [
        {
          "internalType": "string",
          "name": "name",
          "type": "string"
        }
      ],
      "name": "addName",
      "outputs": [],
      "payable": true,
      "stateMutability": "payable",
      "type": "function"
    },
    {
      "constant": false,
      "inputs": [
        {
          "internalType": "string",
          "name": "name",
          "type": "string"
        }
      ],
      "name": "getName",
      "outputs": [],
      "payable": true,
      "stateMutability": "payable",
      "type": "function"
    }
  ],
  "bytecode": "0x6080604052600060015534801561001557600080fd5b5061054d806100256000396000f3fe60806040526004361061003f5760003560e01c806311456b47146100445780636932cf81146100ff57806370aca6c8146101ba578063822fbf5814610296575b600080fd5b6100fd6004803603602081101561005a57600080fd5b810190808035906020019064010000000081111561007757600080fd5b82018360208201111561008957600080fd5b803590602001918460018302840111640100000000831117156100ab57600080fd5b91908080601f016020809104026020016040519081016040528093929190818152602001838380828437600081840152601f19601f820116905080830192505050505050509192919290505050610372565b005b6101b86004803603602081101561011557600080fd5b810190808035906020019064010000000081111561013257600080fd5b82018360208201111561014457600080fd5b8035906020019184600183028401116401000000008311171561016657600080fd5b91908080601f016020809104026020016040519081016040528093929190818152602001838380828437600081840152601f19601f8201169050808301925050505050505091929192905050506103f5565b005b3480156101c657600080fd5b50610280600480360360208110156101dd57600080fd5b81019080803590602001906401000000008111156101fa57600080fd5b82018360208201111561020c57600080fd5b8035906020019184600183028401116401000000008311171561022e57600080fd5b91908080601f016020809104026020016040519081016040528093929190818152602001838380828437600081840152601f19601f820116905080830192505050505050509192919290505050610478565b6040518082815260200191505060405180910390f35b3480156102a257600080fd5b5061035c600480360360208110156102b957600080fd5b81019080803590602001906401000000008111156102d657600080fd5b8201836020820111156102e857600080fd5b8035906020019184600183028401116401000000008311171561030a57600080fd5b91908080601f016020809104026020016040519081016040528093929190818152602001838380828437600081840152601f19601f8201169050808301925050505050505091929192905050506104ea565b6040518082815260200191505060405180910390f35b6001546000826040518082805190602001908083835b602083106103ab5780518252602082019150602081019050602083039250610388565b6001836020036101000a0380198251168184511680821785525050505050509050019150509081526020016040518091039020819055506001806000828254019250508190555050565b6001546000826040518082805190602001908083835b6020831061042e578051825260208201915060208101905060208303925061040b565b6001836020036101000a0380198251168184511680821785525050505050509050019150509081526020016040518091039020819055506001806000828254019250508190555050565b600080826040518082805190602001908083835b602083106104af578051825260208201915060208101905060208303925061048c565b6001836020036101000a0380198251168184511680821785525050505050509050019150509081526020016040518091039020549050919050565b600081805160208101820180518482526020830160208501208183528095505050505050600091509050548156fea265627a7a7231582067fba87a7623f8c769fa5c2a3d835c1e1582821fcee91cdd13582853d675018564736f6c63430005100032",
  "source": "pragma solidity >=0.4.22 <0.8.0;\n\n\ncontract Name_list {\n\n    mapping(string => uint) public names;\n    uint private last_id = 0;\n\n    function getID(string memory name )public view returns(uint ){\n        return names[name];\n    }\n\n    function addName(string memory name)public payable{\n        names[name] = last_id;\n        last_id += 1;\n    }\n\n    function getName(string memory name)public payable{\n        names[name] = last_id;\n        last_id += 1;\n    }\n\n}\n",
  "sourcePath": "/Users/laurenswissels/Documents/Blockchain/Truffle/test-project/smart_contract/contracts/Name_list.sol",
  "compiler": {
    "name": "solc",
    "version": "0.5.16+commit.9c3226ce.Emscripten.clang"
  },
  "schemaVersion": "3.3.1",
  "updatedAt": "2020-11-02T14:46:39.099Z",
  "devdoc": {
    "methods": {}
  },
  "userdoc": {
    "methods": {}
  }
}